:0C039900C0F9A4B0999282F88090BFFFD8
:0B03B100C293C291C293C291D293226A
:0A034A00120354E4FF120354E4FF11
:10035400E4FEC291EF139292D291EFC313FF0EBE4B
:0203640008F09F
:010366002274
:10038200D292E4FEC291EFC313FF3092034307807F
:06039200D2910EBE08EE40
:010398002242
:100327001203B17FBF120354120382EF547FF526E5
:10033700120382EF547FF525120382EF543FF52411
:030347000203B1FD
:10029F00E524C4540F120126E524540F90000112D7
:1002AF000138900002740A120138E525C4540F90EA
:1002BF000003120138E525540F9000041201389005
:1002CF000005740A120138E526C4540F9000061277
:0C02DF000138E526540F9000070201389A
:1001E1008B108A11891220B50A052720B505120244
:1001F1004D80F820B64DE52724FD602204703C05B2
:1002010024E524540FD394094008E52454F0241024
:10021100F524E524D394234022E4F524801D05250B
:10022100E525540FD394094008E52554F02410F531
:1002310025E525D394594003E4F52520B60512029E
:0C0241004D80F8E527B40503E4F5272202
:06015A008B108A118912CE
:04016000E527607CB3
:10016400B401151203B17F801203547F801203542B
:100174001203B1E4F5260527E527B40203E4F513D9
:10018400E527B40303751303E523C39432501FAB6F
:1001940010AA11A912851382758300740B120138F9
:1001A400851382758300A3740B120138800AE5233A
:1001B400C394644003E4F5230523E5276404701C19
:1001C4001203B17FBE12034FAF25120354AF2412A2
:0C01D400034AE4FF12034A1203B105279E
:0101E00022FC
:06024D00AB10AA11A9127A
:060253008B138A148915CB
:10025900E4F51678177C00FD7BFF7A037999FE7F18
:100269000C1200D375A001AB13AA14A91585168227
:100279007583001200F92417F8E6F5807F017E00E6
:100289001203677580FFE5A025E0F5A00516E516C0
:05029900C3940840D2EF
:01029E00223D
:1002EB001203B17F8E12034F7F8412034F7F801254
:1002FB00034F1203B1E52770031203277B007A002B
:10030B00790812029F1201E17B007A007908120131
:0C031B005A7B007A00790812025380D946
:10036700D3EF9400EE64809480400F7D027CFADC2A
:0A037700FEDDFAEF1F70E91E80E6BC
:010381002259
:030000000203A553
:0C03A500787FE4F6D8FD7581270202EB9A
:10000300E709F608DFFA8046E709F208DFFA803EDF
:1000130088828C83E709F0A3DFFA8032E309F608CC
:10002300DFFA8078E309F208DFFA807088828C8334
:10003300E309F0A3DFFA806489828A83E0A3F608E8
:10004300DFFA805889828A83E0A3F208DFFA804CC2
:1000530080D280FA80C680D4806980F28033801099
:1000630080A680EA809A80A880DA80E280CA803302
:1000730089828A83ECFAE493A3C8C582C8CCC5837A
:10008300CCF0A3C8C582C8CCC583CCDFE9DEE7804A
:100093000D89828A83E493A3F608DFF9ECFAA9F0C9
:1000A300EDFB2289828A83ECFAE0A3C8C582C8CC1F
:1000B300C583CCF0A3C8C582C8CCC583CCDFEADE38
:1000C300E880DB89828A83E493A3F208DFF980CC9A
:1000D30088F0EF60010E4E60C388F0ED2402B40493
:1000E3000050B9F582EB2402B4040050AF2323453A
:0600F3008223900053730C
:1000F900BB010CE58229F582E5833AF583E02250BC
:1001090006E92582F8E622BBFE06E92582F8E22205
:0D011900E58229F582E5833AF583E493221F
:10012600BB010689828A83F0225002F722BBFE01B8
:02013600F322B2
:10013800F8BB010DE58229F582E5833AF583E8F0FD
:10014800225006E92582C8F622BBFE05E92582C8A9
:02015800F22291
:00000001FF
