:100D5200120D83120C48E4F5227B007A00790A1204
:0D0D62000C000522E522C3949640EE80E6C9
:040DA40025642000A2
:100D8300759850758920E4F587758DFD758BFDD2B7
:020D93008E22AE
:100C8D00752CFF752D0D752EA48E2F8F307B007A50
:100C9D00007925120685E4FF74252FF8E6F59930C5
:080CAD0099FDC2990FBF03F08D
:010CB500221C
:100D2E00E4F524C2A27FF0120DA8D2A27F21120DEB
:100D3E00A820A2047F0180027F008F247FCB120D9A
:030D4E00A8AF2427
:010D5100227F
:020CDF008F2460
:100CE100E4F525C2A27F01120DA8E5241392A27F8B
:100CF1001E120DA8D2A2E524C313F5240525E5256E
:050D0100C3940840DE70
:010D060022CA
:100CB600E4F524C2A2E525C313F525D2A27F0112CD
:100CC6000DA830A2034325807F19120DA80524E53F
:080CD60024C3940840DDAF25A2
:010CDE0022F3
:100A9800E4F524C3E508648094805031E509F4FF47
:100AA800E508F4FEEF2401FDE43EFC12010EE4FB30
:100AB800FA7980783D1200031201478E088F09E504
:100AC8002470047F0180027F008F248019AC08AD58
:100AD80009EC12010EE4FBFA7980783D120003124A
:100AE80001478E088F09750A0B750B0B750C0B7572
:100AF8000D0B750E0BAE08AF097C037DE812055A85
:100B08007E007F64CFCDCFCECCCE12055A8F0FAEEC
:100B180008AF097C007D6412055A7E007F0ACFCD9C
:100B2800CFCECCCE12055A8F10AE08AF097C007D0F
:100B38000A12055A8D11E524B4011CE510700875D8
:100B4800100A750F0B8003750F0AC3E49509F509A0
:100B5800E49508F508800EE50F700A750F0BE5108F
:0C0B6800700375100BAF09AE08020C8D75
:100C4800120D2E7FCC120CDF7F44120CDF30A2FD78
:100C5800120D2E7FCC120CDF7FBE120CDFE4F523C1
:100C6800120CB674122523F8A6070523E523C394AE
:100C78000940EDAF137E008E088F09EFF508E512E5
:050C8800F509020A98C5
:0E0D95000C453F065B4F666D7D077F6F40008B
:060C00008B238A248925E4
:100C0600752701E4F526D2A7E527F4F580C2A7D219
:100C1600A6AB23AA24A92585268275830012051B67
:100C26002445F8E6F5807F017E00120D6FE4F5801D
:100C3600C2A6E52725E0F5270526E526C394084044
:010C4600C5E8
:010C4700228A
:030DA800DFFE2249
:100D6F00EF4E600F7D027CFADCFEDDFAEF1F70F0B4
:030D7F001E80EDE6
:010D8200224E
:10000300EC4D6011E8497017ED33EC3304600DE4F7
:10001300FCFFFEFD22E933E8330470F80201B3125A
:10002300017E58046009E4CC24815006285009025B
:1000330001BD2840030201BAC0E0EB4A7044B98015
:1000430006D0E0FB0201A9EF4E701CBD8008EBFF58
:10005300EAFEE9FD80EBE98DF0A4FEE5F00200EC99
:10006300E9CDF9EAFEEBFFEF89F0A4FCE5F0CE89D8
:10007300F0A42EFFE435F0CD89F0A42DFEE435F095
:100083008067EF4E7005BD80D780C3EF8BF0A4ACC3
:10009300F0EE8BF0A42CFCE435F0F8EF8AF0A42CFE
:1000A300E5F038FCE433CB8DF0A42CFCE5F03BF811
:1000B300EE8AF0A42CFCE5F038F8E433CF89F0A401
:1000C3002CFCE5F038CF3400CE89F0A42FFFE5F007
:1000D3003EFEE433C98DF0A42EFEE5F039CD8AF05F
:1000E300A42FFFE5F03EFEE43DFD33D0E0FB5007D7
:1000F3000BBB000F0201BDEC2CFCEF33FFEE33FE14
:06010300ED33FD02019541
:1001090075F020800E75F010800575F0087D007E71
:10011900007F003392D530D503120590EC3340109F
:10012900EF33FFEE33FEED33FDEC33FCD5F0ED227A
:0E013900E5F0247EA2D513CC92E7CDCEFF22B6
:10014700EDD2E7CD33EC3392D524814006E4FFFEB0
:10015700FDFC22FCE4CFCECDCC24E0501174FF800F
:10016700EDC3CC13CCCD13CDCE13CECF13CF0470AC
:07017700F030D5DE02059017
:10062900E540242CF8E60540227829300702782C89
:10063900E475F00112059E0205022000EB7F2ED21F
:10064900008018EF540F2490D43440D4FF30040BA9
:10065900EF24BFB41A0050032461FFE5416002157D
:10066900410544E5447002054330070D7829E475D6
:10067900F00112059EEF020548020D077403D20727
:100689008003E4C207F5408B298A2A892BE4F541C6
:10069900F543F544E54160077F2012066480F5754E
:1006A90042FFC201C200C202C203C205C206C20899
:1006B900120632FF700D3007057F00120675AF4430
:1006C900AE4322B4255FC2D5C204120632FF24D03C
:1006D900B40A00501A75F00A784130D50508B6FFFA
:1006E9000106C6A426F620D5047002D20380D924B7
:1006F900CFB41A00EF5004C2E5D204020962D20154
:1007090080C6D20080C0D20280BCD2D580BAD205C0
:1007190080B47F201206642002077401B5410040AD
:10072900F1120629FF12066402069DD208D206803C
:1007390095120629FB120629FA120629F94A4B7065
:100749000679597A0A7BFF20022EE541602A7E004C
:100759008E8275830012051B60060EEE654270F0ED
:10076900C2D5EBC0E0EAC0E0E9C0E0EE1209C2D0B0
:10077900E0F9D0E0FAD0E0FB120502FF60AAEBC075
:10078900E0EAC0E0E9C0E0120664D0E02401F9D053
:10079900E03400FAD0E0FBE5420460DCD542D980C0
:1007A90087D20280A21209A560F7E54270010412FE
:1007B90001C8A942600DE542600914F542120A4CCC
:1007C900EF60F3EA30E702F404C3995077EAF425BD
:1007D900420430E701E404F542800D1209A560C125
:1007E900EA054225421201C8EA783FF630E701E4FA
:1007F900254204D54204200501141209C2E4C0E0CF
:10080900120A4C783FE6601320E70714F612064CEB
:10081900802204F6D0E014C0E07F0012064CE542C5
:1008290060071206431542800B300503120643D0B8
:10083900E002069DD0E00480C51209A560A0E5424A
:10084900041201C8783FEAF6E54220050260010476
:0508590024041209C295
:10085E0074FF04C0E0120A4C12064CE54220050259
:10086E006003120643D0E0B542E87F451206567883
:10087E003FE67F2B30E7047F2DF404C0E0120664C0
:10088E00D0E075F00A84C0F012064DD0E012064D8D
:10089E0002069D791080027908C206C2088008D22D
:1008AE00D5790A8004790AC2D5E542047002F54270
:1008BE00E4FAFDFEFF120629FC7B08200113120646
:1008CE0029FD7B1030000A120629FE120629FF7B35
:1008DE0020EC3382D592D55013C3E43000069FFF2F
:1008EE00E49EFEE42001039DFDE49CFCE4CBF8C2F3
:1008FE0001EC700CCFCECDCCE824F8F870F3801755
:10090E00C3EF33FFEE33FEED33FDEC33FCEB33FB85
:10091E00994002FB0FD8E9EB300105F8D0E0C4484E
:10092E00B201C0E00AEC4D4E4F78207B0070C2EA57
:10093E00B5420040BCC0E01209C4D0F0D0E02001A6
:10094E0004C4C0E0C4B201C0F012064DD0F0D5F020
:10095E00EB02069D1205AE073A5308A158070B4C41
:10096E0007074208A54F08AD4408AD4907204308C4
:10097E00B35507E44608424507AE470A7950070FBC
:10098E002D07132E07362B0717230734200A622A4A
:10099E0006CF480000072EE542B4FF03754206124B
:1009AE000629FC120629FD120629FE120629FF78D9
:1009BE00380201F7790AA2D5200314300509B910BF
:1009CE00020404B9080104A2D52006025001042035
:1009DE0002689202B541005034C0E07F2030031906
:1009EE007F30A20272067205500F120A1BC202C29B
:1009FE0006C205C2087F30800F300503E9C0E01241
:100A0E000664300503D0E0F9D0E0B541CC300517CF
:100A1E007F30B9100C1206647F583004077F78803F
:100A2E0003B908031206643002057F2D0206647FA7
:100A3E00202008F87F2B2006F322920280CF7F0021
:100A4E00B4070050052438F8E6FF22286E756C6C4A
:100A5E002900D2011206293001F8C201784130D5A1
:100A6E000108F60206CF2D504349581206292403D9
:100A7E00B405004001E4900A7493120655743A12BC
:0A0A8E000655D2037541040208A1C9
:10017E00E9D2E7C933E833F892D5EDD2E7CD33ECC7
:07018E0033FC5002B2D52240
:10019500EC30E7100FBF000C0EBE00080DBD0004CB
:1001A5000BEB6014A2D5EB13FCED92E7FD2274FF77
:1001B500FCFDFEFF22E480F8A2D574FF13FC7D80D0
:0301C500E480EFE4
:1001C800F920E72824F950037907E4F42402FB18FE
:1001D800DBFDE624FB5014E9600DE4F618E604F6AE
:0F01E800B40A08E4F6D9F57401F60A22C2D5224A
:1001F700ED33EC3392D5FA602AB4FF33EDC2E77BD7
:10020700FF60067A02791CE4227A02792520D50458
:100217007A027920224E614E002B494E46002D4925
:100227004E4600E47A08F608DAFC7B00740722E8F9
:10023700C0E0ECC0E0EDC0E0EEC0E0EFC0E0EA7582
:10024700F010A4CAABF075F04DA42BFBE435F0FC1D
:10025700EA2410FAEB34C5FBEC34D9FCEDC2E7FF16
:1002670075F056A4F42411C5F0F434C58FF0A42A10
:10027700E5F03BE43CF620E7141204C2D0E0FFD0DF
:10028700E0FED0E0FDD0E0FC1203F58014F4041288
:1002970004C2D0E0FFD0E0FED0E0FDD0E0FC1200C9
:1002A70003D0E0F8E6FAEDD2E7CD33EC332482FB56
:1002B700E4C3CF33CFCE33CECD33CD33DBF37B07A0
:1002C70075F00A846004F6081B0AE5F0F6088FF05B
:1002D700740AA4FFACF08EF0740AA42CFEACF050A4
:1002E700010C8DF0740AA42CFDE435F0F608DBDE72
:0302F70074072267
:1002FA000201B3E86480F8E933E83360110460F07E
:10030A00ED33EC337009E8FCE9FDEAFEEBFF220469
:10031A0060DED3EB9FEA9EE99DE8C2E78CF0C2F764
:10032A0095F0400CE8CCF8E9CDF9EACEFAEBCFFB30
:10033A0012017E85D0F05804700320D5B3E804700A
:10034A00075002B2D50201BD92D5EC0460F7E4CCA5
:10035A00C0E0C398F8603B94186008400DD0E0FBF9
:10036A00020195E4FBFAC9FC8028E830E406E4C9F6
:10037A00FBE4CAFCE830E305E4C9CACBFCE854074D
:10038A006010F8C3E913F9EA13FAEB13FBEC13FC58
:10039A00D8F130F52FC3E49CFCEF9BFFEE9AFEEDFB
:1003AA0099FDD0E0FBEF4E4D4C701222DB030201A7
:1003BA00BAEC2CFCEF33FFEE33FEED33FDED30E704
:1003CA00EB020195EF2BFFEE3AFEED39FDD0E0FB93
:1003DA0050130BBB00030201BDED13FDEE13FEEF3C
:0803EA0013FFEC13FC02019566
:1003F2000201BDEC5D046005E8590470030201B31B
:1004020012017E580460F6EC4860F2EC7004FDFEC6
:10041200FF22C860DB2481C85009C39860025006DD
:100422000201BA9850CAF582E9294B4A7005AB829B
:100432000201A975F0007C1A7880C3EF9BEE9AED59
:1004420099400DC3EF9BFFEE9AFEED99FDE842F055
:10045200DC23ACF0D0E0FFD0E0FED0E0FDAB8220A8
:10046200E7101BEB60BAEC2CFCEF33FFEE33FEED32
:1004720033FD020195E803F830E705C0F075F0009E
:10048200EF2FFFEE33FEED33FD40B830E7C280AA16
:100492003F8000004120000042C80000447A000072
:1004A200461C400047C35000497424004B189680F4
:1004B2004CBEBC205A0E1BCA6753C21C749DC5AEEB
:1004C200FB60065407601C23231204F0EB543860CF
:1004D200091204DC1204EB120003ECF8EDF9EEFA57
:1004E200EFCB22EB1204EB80F1543803241C90046E
:1004F20092FE93FC0EEE93FD0EEE930ECE93FF2230
:03000000020B747C
:0C0B7400787FE4F6D8FD758150020BBBC1
:10050200BB010689828A83E0225002E722BBFE02F7
:09051200E32289828A83E493222A
:10051B00BB010CE58229F582E5833AF583E0225095
:10052B0006E92582F8E622BBFE06E92582F8E222DF
:0D053B00E58229F582E5833AF583E49322F9
:10054800BB010689828A83F0225002F722BBFE0192
:02055800F3228C
:10055A00C2D5EC30E709B2D5E4C39DFDE49CFCEEBC
:10056A0030E715B2D5E4C39FFFE49EFE1205D4C35B
:10057A00E49DFDE49CFC80031205D430D507C3E456
:06058A009FFFE49EFE222B
:0E059000C3E49FFFE49EFEE49DFDE49CFC227C
:10059E00FAE6FB0808E6F925F0F618E6CA3AF6225E
:1005AE00D083D082F8E4937012740193700DA3A3DC
:1005BE0093F8740193F5828883E4737402936860F0
:0605CE00EFA3A3A380DFF0
:100D0700EFB40A07740D120D12740A309811A899DE
:100D1700B8130CC2983098FDA899C298B811F6304C
:070D270099FDC299F5992224
:100B8000020D52E493A3F8E493A34003F68001F22C
:100B900008DFF48029E493A3F85407240CC8C33376
:100BA000C4540F4420C8834004F456800146F6DF45
:100BB000E4800B0102040810204080900D95E47E33
:100BC000019360BCA3FF543F30E509541FFEE4933A
:100BD000A360010ECF54C025E060A840B8E493A301
:100BE000FAE493A3F8E493A3C8C582C8CAC583CA2C
:100BF000F0A3C8C582C8CAC583CADFE9DEE780BEE4
:010DA300004F
:1005D400BC000BBE0029EF8DF084FFADF022E4CC0B
:1005E400F875F008EF2FFFEE33FEEC33FCEE9DECD4
:1005F400984005FCEE9DFE0FD5F0E9E4CEFD22ED1A
:10060400F8F5F0EE8420D21CFEADF075F008EF2F63
:10061400FFED33FD4007985006D5F0F222C398FD54
:050624000FD5F0EA22F1
:00000001FF
