:0F053300EF4E600B7D01DDFEEF1F70F41E80F1B7
:010542002296
:10050D00EF4E60217D047C007BF07A00EB1B7001C7
:10051D001A144A70F7ED1D70011CED4C70EAEF1FB7
:05052D0070DE1E80DB02
:0105320022A6
:1004E400E4F51FC2B57FF0FE120533D2B57F217E3D
:1004F4000012053320B5047F0180027F008F1F7F27
:08050400CB7E00120533AF1F8E
:01050C0022CC
:0204B8008F1B98
:1004BA00E4F51CC2B57F017E00120533E51B1392D9
:1004CA00B57F1E7E00120533D2B5E51BC313F51B9B
:0904DA00051CE51CC3940840DA7E
:0104E30022F6
:10048B00E4F51DC2B5E51EC313F51ED2B57F017E83
:10049B000012053330B503431E807F197E00120511
:0C04AB0033051DE51DC3940840D9AF1EA9
:0104B7002222
:10035600E4F520C3E50864809480503AE509F4FF8B
:10036600E508F4FEEF2401FDE43EFC120203E4FB83
:10037600FA7920783F1200F8E4FBFAF9783F120088
:100386000712023C8E088F09E52070047F01800267
:100396007F008F208022AC08AD09EC120203E4FB3B
:1003A600FA7920783F1200F8E4FBFAF9783F120058
:1003B6000712023C8E088F09750A0B750B0B750C1C
:1003C6000B750D0BAE08AF097C037DE81202BD8FDD
:1003D6000EAE08AF097C037DE81202BDAA04AB0588
:1003E6007D647C00AF03AE021202BD8F0F7D647C7C
:1003F60000AF03AE021202BDAA04AB057D0A7C0063
:10040600AF03AE021202BD8F107D0A7C00AF03AEB1
:10041600021202BD8D11E520B40117E50E700FE53D
:100426000F7007750F0A750E0B22750E0A22750DD1
:100436000A22E50E700A750E0BE50F7003750F0B99
:010446002293
:100447001204E47FCC1204B87F441204B830B5FD1F
:100457001204E47FCC1204B87FBE1204B8E4F5217D
:1004670012048B74122521F8A6070521E521C394F0
:100477000940ED750800851309E509F508E512F54A
:04048700090203560D
:030543007522011D
:010546002292
:100000000202A8E86480F8E933E83360110460F084
:10001000ED33EC337009E8FCE9FDEAFEEBFF220466
:1000200060DED3EB9FEA9EE99DE8C2E78CF0C2F761
:1000300095F0400CE8CCF8E9CDF9EACEFAEBCFFB2D
:1000400012027385D0F05804700320D5B3E8047011
:10005000075002B2D50202B292D5EC0460F7E4CCAC
:10006000C0E0C398F8603B94186008400DD0E0FBF6
:1000700002028AE4FBFAC9FC8028E830E406E4C9FD
:10008000FBE4CAFCE830E305E4C9CACBFCE854074A
:100090006010F8C3E913F9EA13FAEB13FBEC13FC55
:1000A000D8F130F52FC3E49CFCEF9BFFEE9AFEEDF8
:1000B00099FDD0E0FBEF4E4D4C701222DB030202A3
:1000C000AFEC2CFCEF33FFEE33FEED33FDED30E70C
:1000D000EB02028AEF2BFFEE3AFEED39FDD0E0FB9A
:1000E00050130BBB00030202B2ED13FDEE13FEEF43
:0800F00013FFEC13FC02028A6D
:1000F800EC4D6011E8497017ED33EC3304600DE402
:10010800FCFFFEFD22E933E8330470F80202A8126E
:10011800027358046009E4CC24815006285009026F
:1001280002B22840030202AFC0E0EB4A7044B98033
:1001380006D0E0FB02029EEF4E701CBD8008EBFF6C
:10014800EAFEE9FD80EBE98DF0A4FEE5F00201E1AD
:10015800E9CDF9EAFEEBFFEF89F0A4FCE5F0CE89E2
:10016800F0A42EFFE435F0CD89F0A42DFEE435F09F
:100178008067EF4E7005BD80D780C3EF8BF0A4ACCD
:10018800F0EE8BF0A42CFCE435F0F8EF8AF0A42C08
:10019800E5F038FCE433CB8DF0A42CFCE5F03BF81B
:1001A800EE8AF0A42CFCE5F038F8E433CF89F0A40B
:1001B8002CFCE5F038CF3400CE89F0A42FFFE5F011
:1001C8003EFEE433C98DF0A42EFEE5F039CD8AF069
:1001D800A42FFFE5F03EFEE43DFD33D0E0FB5007E1
:1001E8000BBB000F0202B2EC2CFCEF33FFEE33FE28
:0601F800ED33FD02028A56
:1001FE0075F020800E75F010800575F0087D007E7C
:10020E00007F003392D530D5031202F3EC33401049
:10021E00EF33FFEE33FEED33FDEC33FCD5F0ED2284
:0E022E00E5F0247EA2D513CC92E7CDCEFF22C0
:10023C00EDD2E7CD33EC3392D524814006E4FFFEBA
:10024C00FDFC22FCE4CFCECDCC24E0501174FF8019
:10025C00EDC3CC13CCCD13CDCE13CECF13CF0470B6
:07026C00F030D5DE0202F3C1
:10027300E9D2E7C933E833F892D5EDD2E7CD33ECD1
:0702830033FC5002B2D5224A
:10028A00EC30E7100FBF000C0EBE00080DBD0004D5
:10029A000BEB6014A2D5EB13FCED92E7FD2274FF81
:1002AA00FCFDFEFF22E480F8A2D574FF13FC7D80DA
:0302BA00E480EFEE
:1002BD00C2D5EC30E709B2D5E4C39DFDE49CFCEE5C
:1002CD0030E715B2D5E4C39FFFE49EFE120301C3D0
:1002DD00E49DFDE49CFC800312030130D507C3E4CB
:0602ED009FFFE49EFE22CB
:0E02F300C3E49FFFE49EFEE49DFDE49CFC221C
:10030100BC000BBE0029EF8DF084FFADF022E4CCE0
:10031100F875F008EF2FFFEE33FEEC33FCEE9DECA9
:10032100984005FCEE9DFE0FD5F0E9E4CEFD22EDEF
:10033100F8F5F0EE8420D21CFEADF075F008EF2F39
:10034100FFED33FD4007985006D5F0F222C398FD2A
:050351000FD5F0EA22C7
:00000001FF
