:0A032A00C0F9A4B0999282F8809007
:0A032000759D01E4F5A275BC2022D2
:07033400AFBCEF4488F5BCEB
:01033B00229F
:03002B00020003CD
:10000300C0E0C0D075D000C00753BCEF85BD0A1255
:0C0013000320120334D007D0D0D0E0321C
:05033C008D808FA0225E
:100256008E088F09AC08AD09E41201397B717A3D2D
:10026600799C784112002E1201728E088F097C004B
:100276007D0A1201F3742A2DF58274033CF5837FFF
:10028600801202FBAE08AF097C007D0A1201F37CE6
:10029600007D0A1201F3742A2DF58274033CF5835E
:1002A6007F401202FBAE08AF097C007D641201F3A9
:1002B6007C007D0A1201F3742A2DF58274033CF545
:1002C60083E493FD7F2012033C120301AE08AF09BD
:1002D6007C037DE81201F37C007D0A1201F3742A87
:1002E6002DF58274033CF583E493547FFD7F101251
:0502F600033C020301BE
:0602FB00E493FD12033C38
:0C0301007F027EEE7D1EDDFEDEFADFF6E0
:01030D0022CD
:10030E0075A8A0120320120334AF0A7E0012025603
:02031E0080F766
:10002E00EC4D6011E8497017ED33EC3304600DE4CC
:10003E00FCFFFEFD22E933E8330470F80201DE1204
:10004E0001A958046009E4CC248150062850090205
:10005E0001E82840030201E5C0E0EB4A7044B98094
:10006E0006D0E0FB0201D4EF4E701CBD8008EBFF02
:10007E00EAFEE9FD80EBE98DF0A4FEE5F002011742
:10008E00E9CDF9EAFEEBFFEF89F0A4FCE5F0CE89AD
:10009E00F0A42EFFE435F0CD89F0A42DFEE435F06A
:1000AE008067EF4E7005BD80D780C3EF8BF0A4AC98
:1000BE00F0EE8BF0A42CFCE435F0F8EF8AF0A42CD3
:1000CE00E5F038FCE433CB8DF0A42CFCE5F03BF8E6
:1000DE00EE8AF0A42CFCE5F038F8E433CF89F0A4D6
:1000EE002CFCE5F038CF3400CE89F0A42FFFE5F0DC
:1000FE003EFEE433C98DF0A42EFEE5F039CD8AF034
:10010E00A42FFFE5F03EFEE43DFD33D0E0FB5007AB
:10011E000BBB000F0201E8EC2CFCEF33FFEE33FEBD
:06012E00ED33FD0201C0EB
:1001340075F020800E75F010800575F0087D007E46
:10014400007F003392D530D503120248EC334010BF
:10015400EF33FFEE33FEED33FDEC33FCD5F0ED224F
:0E016400E5F0247EA2D513CC92E7CDCEFF228B
:10017200EDD2E7CD33EC3392D524814006E4FFFE85
:10018200FDFC22FCE4CFCECDCC24E0501174FF80E4
:10019200EDC3CC13CCCD13CDCE13CECF13CF047081
:0701A200F030D5DE02024837
:1001A900E9D2E7C933E833F892D5EDD2E7CD33EC9C
:0701B90033FC5002B2D52215
:1001C000EC30E7100FBF000C0EBE00080DBD0004A0
:1001D0000BEB6014A2D5EB13FCED92E7FD2274FF4C
:1001E000FCFDFEFF22E480F8A2D574FF13FC7D80A5
:0301F000E480EFB9
:0300000002001FDC
:0C001F00787FE4F6D8FD75810A02030E1C
:1001F300BC000BBE0029EF8DF084FFADF022E4CCF0
:10020300F875F008EF2FFFEE33FEEC33FCEE9DECB8
:10021300984005FCEE9DFE0FD5F0E9E4CEFD22EDFE
:10022300F8F5F0EE8420D21CFEADF075F008EF2F48
:10023300FFED33FD4007985006D5F0F222C398FD39
:050243000FD5F0EA22D6
:0E024800C3E49FFFE49EFEE49DFDE49CFC22C7
:00000001FF
