:10000300D2D4CFC2B3F5CABCBBAF2020202020205E
:10001300D2D4CFC2B3F5CABCBBAF2020202020204E
:10002300D2D4CFC2B3F5CABCBBAF2020202020203E
:10003300D2D4CFC2B3F5CABCBBAF2020202020202E
:10004300B9F620202020202020202020202020203E
:100053002020B6AF20202020202020202020202078
:1000630020202020CFD4202020202020202020202A
:10007300202020202020CABE202020202020202035
:100083002020202020202020B2E220202020202019
:1000930020202020202020202020CABE2020202015
:1000A300000000000000000000000000000000004D
:1000B3000000000000000000000000003F8000007E
:1000C3000000000000000000003FE000FFE000002F
:1000D30000000000000003C003FFFFE1FFF0000089
:1000E3000000000000001FF8FFFFFFFFFFFC0000FF
:1000F3000000000000007FFFFFFFFC1FFFFC00006B
:10010300000000000000FFFF9FFFFFE7FFFC00006F
:10011300000000000001FFFE7C1FFFFDFFFC00004C
:10012300000000000001FFFDC00001FDFFFE000014
:10013300000000000003FFF78000003E7FFE000088
:10014300000000000003FFFF00000003FFFE0000AB
:10015300000000000003FFEF80000FC1FFFE00005E
:10016300000000000003FFFF7FC07FC0DFFC000032
:10017300000000000003FFFFFFC07FF86FFC0000DA
:10018300000000000001FFBFFF803FFFBFF8000039
:10019300000000000000FFAFEFE4F007FFF00000F5
:1001A300000000000000FFFE1C7DFFC3FFE0000015
:1001B3000000000000007FFDFFF9BFF9BB800000D5
:1001C3000000000000000EEFFFE07F7C0F00000046
:1001D30000000000000006F3F0398C800780000067
:1001E3000000000000000FE63F79CFC007C0000009
:1001F3000000000000000FED0070C00006C000000A
:100203000000000000001FEE0000000003E00000FB
:100213000000000000001FC000C0200001E000003B
:100223000000000000001F8001C0380003F0000040
:100233000000000000001F8003001C0000F000000D
:100243000000000000001F8007800E0000F0000087
:100253000000FFF800001F800FFFFF0001F80000FF
:1002630000FFFFFF00003FC31FFFFBC001BC0000F6
:1002730000FFFFFF80007FC3FC7F03F001BF00008E
:1002830000FFFFFFF0007BE3F80001F007BF8000F1
:100293000001FFFFFC00FFE3BFFFFFF007BF80008B
:1002A3000000FFFFFF81FFF1CFFFFF4007FF80004A
:1002B3000000FFFFFFF3FFF0C3C03E000F7F80008D
:1002C3000000FFFFFFFFFDF8C1FF78001EFF800065
:1002D3000000FFFFFFFFFDF8439F00023FFF800088
:1002E3000000FFFFFFFFFEFC01F000027BFF800028
:1002F30000007FFFFFFFFFBE187F8001E7FF800044
:1003030000003FFFFFFFFFDF180F010FDFFF80003B
:1003130000003FFFFFFFFFE3C00003FF7FFF8000FC
:10032300000007FFFFFFFFF878007FF8FFFF800062
:100333000000007FFFFFFFFFC6FFFF87FFFF800076
:100343000000001FFFFFFFFFFC01B0FFFFFF800065
:100353000000000FFFFFFFFFFFFFEFFFFFFF800025
:1003630000000001FFFFFFFFFFFFFFFFFFFF800013
:10037300000000001FFFFFFFFFFFFFFFFFFF8000E4
:100383000000000003FFFFFFFFFFFFFFFFFF000070
:10039300000000000000000000000000000000005A
:1003A300000000000000000000000000000000004A
:1003B300000000000000000000000000000000003A
:1003C300000000000000000000000000000000002A
:1003D300000000000000000000000000000000001A
:1003E300000000001FFE0E07FF03C0670FFF0000A1
:1003F300000000001FFEFFF7FF3FF8460FFF00005D
:10040300000000001FFEFFF1CF3CD9F7E7EC00002E
:10041300000000001FFE7FC0387FFDBDE7EC000039
:10042300000000001CC07FC0307FFDFEFFFF000006
:10043300000000001CFDFFF0300FD9F7FFFF0000A4
:10044300000000001DFDFFF0307FFBFBE7EC000028
:1004530000000000198C7FC0307C61B8E7EC00001D
:10046300000000003FBC7FC0F01FFDFBE7FC000065
:10047300000000003F3C7FC0F01FBDBBC43C000038
:100483000000000036306040C018180380380000B8
:100493000000000000000000000000000000000059
:1010710075A0FFC2B7D2B612105920A7FDC2B57F25
:06108100017E0002105F79
:101029008F2D121071D2B7C2B6852DA0121059C2D8
:08103900B57F017E0002105F8B
:101041008F2D121071C2B7C2B6852DA0121059C2D0
:08105100B57F017E0002105F73
:10109C0012107175A0FFD2B7D2B6D2B5D2B5AFA02F
:0210AC00C2B5CB
:0110AE00221F
:10100900E4FDFCC3ED9FEC9E5015E4FBFA0BBB001D
:0F101900010ABA08F8BB34F50DBD00010C80E4E4
:0110280022A5
:06105900D2B57F017E000C
:10105F00E4FDFCC3ED9FEC9E50070DBD00010C801D
:01106F00F28E
:01107000225D
:100F9C007F287E00121009C286D2867F3012104143
:100FAC007F647E0012105F7F301210417F257E001F
:100FBC0012105F7F0C1210417F647E0012105F7F55
:100FCC00011210417F0A7E001210097F06021041A7
:080FDC008D288B298A2A892B3C
:100FE400121041E4F52CE52CC395285017AB29AA1F
:100FF4002AA92B852C82758300120866FF121029FA
:04100400052C80E255
:0110080022C5
:060E93008B368A37893816
:100E99007F341210417F36121041E4F539E4F53AF6
:100EA900E53A2480FF121041E53970047F80800201
:100EB9007F88121041E4F53BAB360538E538AA378F
:100EC9007002053714F912084DFF121029053BE588
:100ED9003BC3941040E2053AE53AC3942040C1056A
:0D0EE90039E539C3940240B57F3002104155
:100F4F007F341210417F36121041E4F521E4F5226F
:100F5F00E5222480FF121041E52170047F8080027A
:100F6F007F88121041E4F523E4FF1210290523E5D1
:100F7F0023C3941040F20522E522C3942040D105EB
:0D0F8F0021E521C3940240C57F30021041CE
:060A96008F2E8A2F8B3029
:100A9C00E4F533C3EC648094805003020BF6D3ED81
:100AAC00943FEC648094804003020BF6E52EC394D3
:100ABC00005003020BF6E52ED3947F4003020BF695
:100ACC00C3ED9420EC64809480ED500F2480F532BB
:100ADC00E52EC4540F2480F531800D2460F532E5E9
:100AEC002EC4540F2488F531AF32121041AF31129D
:100AFC00104112109C12109C8F3512109C8F34E5F3
:100B0C002E540FF9EFFD7C00E9C394087E004004DD
:100B1C007F0180027F00120893AA06AB07E535FD22
:100B2C007C00E9C394087E0050047F0180027F00A2
:100B3C00120893EF2BFDEE3AFCE95407FFC3740740
:100B4C009FFB74017E00A803088005C333CE33CE0F
:100B5C00D8F9FFEE5CFEEF5D4E603AE5306401457E
:100B6C002F606F753301E9C3940850107401A8030A
:100B7C00088002C333D8FCF452358056E95407FF81
:100B8C00C374079FFF7401A807088002C333D8FC05
:100B9C00F45234803DE530452F6037753301E9C39D
:100BAC0094085018E95407FFC374079FFF7401A8F9
:100BBC0007088002C333D8FC42358016E95407FF7E
:100BCC00C374079FFF7401A807088002C333D8FCC5
:100BDC004234E5336014AF32121041AF3112104180
:0A0BEC00AF35121029AF34121029A2
:010BF60022DC
:0A0BF7008F088C098D0A8A0B8B0C05
:100C01007F341210417F36121041E508650C7002E5
:100C1100E50B7041C3E50E950AE5096480F8E50D21
:100C21006480984005850A118009850E1185090D9A
:100C3100850A0EE511FD7C00D3950EE50D6480F863
:100C41007480984003020D45AB10AA0FAF08120A39
:100C510096051180DED3E50C95087480F8650B9834
:100C61004043E50E950AFDE50D9509FC120746C0C6
:100C710004C005C006C007C3E50C9508FDE50B944B
:100C810000FC120746A804A905AA06AB07D007D0A5
:100C910006D005D0041206A48F158E148D138C1264
:100CA1008508118047C3E50A950EFDE509950DFC00
:100CB100120746C004C005C006C007C3E508950C6D
:100CC100FDE4950BFC120746A804A905AA06AB078B
:100CD100D007D006D005D0041206A48F158E148D2E
:100CE100138C12850C11750B0085080CD3E5119539
:100CF1000CE50B6480F87480985049AC11E412073C
:100D01004BAB15AA14A913A81212059BC004C00568
:100D1100C006C007AC09AD0AEC120746D003D002E9
:100D2100D001D0001204AAE4FBFAF9783F1204AA18
:100D310012077FEFFD7C00AB10AA0FAF11120A96CC
:090D4100051180A87F3002104169
:100EF6007F341210417F36121041E4F51FAC1FE417
:100F060012074B7BCD7ACC794C783D12059B1209A2
:100F160086E4FBFAF9784212059BA804A905AA06FD
:100F2600AB07E4FFFEFD7C421204A612077FAD0765
:100F3600AC067B017A00AF1F120A96051FE51FC398
:090F4600948040B97F3002104193
:100E2F008F168C178D188A198B1AC3EF951AE5191F
:100E3F006480F8748098504BC3E518951CE51B64CB
:100E4F0080F8E517648098503A7F341210417F364E
:100E5F00121041E516FB7A00D3951AE5196480F854
:100E6F007480985019851B0D851C0E851D0F851ECE
:100E7F0010AD18AC17AF16120BF7051680D57F30D3
:040E8F0012104122DA
:080D4A008B218A2289238D24EC
:100D5200752580752603E4F527E527C31375F01082
:100D6200A4AB212523F9E52235F0FAE527540175D4
:100D7200F020A429F9EA35F0FAE52775F008A42550
:100D820025FF7D10120FDC0527E527C3940640C915
:100D92007527017525B0E5268524F084E5F075F008
:100DA20010A4AB212523F9E52235F0FA7D10AF25F9
:100DB200120FDCE5262402FFE433FEAD247C001290
:100DC20008A5ED75F010A4AB212523F9E52235F035
:100DD200FAE5252408FF7D10120FDC052674102584
:100DE20025F525B4C0037525807F341210417F0399
:100DF200121041E527540F6013E5272440FF12101B
:100E0200417F327E00121009052780E7E527B440B2
:100E120003E4F527E5272440FF1210417F327E00CC
:0D0E220012100905277F30121041020D98B3
:10108700120F9C120F4FC2B47BFF7A0079437D0683
:05109700120D4A80FE6D
:1004A3000207EBE86480F8E933E83360110460F095
:1004B300ED33EC337009E8FCE9FDEAFEEBFF2204BF
:1004C30060DED3EB9FEA9EE99DE8C2E78CF0C2F7BA
:1004D30095F0400CE8CCF8E9CDF9EACEFAEBCFFB86
:1004E3001207B685D0F05804700320D5B3E8047022
:1004F300075002B2D50207F592D5EC0460F7E4CCBD
:10050300C0E0C398F8603B94186008400DD0E0FB4E
:100513000207CDE4FBFAC9FC8028E830E406E4C90D
:10052300FBE4CAFCE830E305E4C9CACBFCE85407A2
:100533006010F8C3E913F9EA13FAEB13FBEC13FCAD
:10054300D8F130F52FC3E49CFCEF9BFFEE9AFEED50
:1005530099FDD0E0FBEF4E4D4C701222DB030207F6
:10056300F2EC2CFCEF33FFEE33FEED33FDED30E721
:10057300EB0207CDEF2BFFEE3AFEED39FDD0E0FBAA
:1005830050130BBB00030207F5ED13FDEE13FEEF53
:0805930013FFEC13FC0207CD7D
:10059B00EC4D6011E8497017ED33EC3304600DE45A
:1005AB00FCFFFEFD22E933E8330470F80207EB127F
:1005BB0007B658046009E4CC248150062850090280
:1005CB0007F52840030207F2C0E0EB4A7044B980FC
:1005DB0006D0E0FB0207E1EF4E701CBD8008EBFF7D
:1005EB00EAFEE9FD80EBE98DF0A4FEE5F00206845E
:1005FB00E9CDF9EAFEEBFFEF89F0A4FCE5F0CE893B
:10060B00F0A42EFFE435F0CD89F0A42DFEE435F0F7
:10061B008067EF4E7005BD80D780C3EF8BF0A4AC25
:10062B00F0EE8BF0A42CFCE435F0F8EF8AF0A42C60
:10063B00E5F038FCE433CB8DF0A42CFCE5F03BF873
:10064B00EE8AF0A42CFCE5F038F8E433CF89F0A463
:10065B002CFCE5F038CF3400CE89F0A42FFFE5F069
:10066B003EFEE433C98DF0A42EFEE5F039CD8AF0C1
:10067B00A42FFFE5F03EFEE43DFD33D0E0FB500739
:10068B000BBB000F0207F5EC2CFCEF33FFEE33FE38
:06069B00ED33FD0207CD66
:1006A1000207F5EC5D046005E8590470030207EBED
:1006B1001207B6580460F6EC4860F2EC7004FDFED7
:1006C100FF22C860DB2481C85009C398600250062C
:1006D1000207F29850CAF582E9294B4A7005AB82AC
:1006E1000207E175F0007C1A7880C3EF9BEE9AED6A
:1006F10099400DC3EF9BFFEE9AFEED99FDE842F0A4
:10070100DC23ACF0D0E0FFD0E0FED0E0FDAB8220F6
:10071100E7101BEB60BAEC2CFCEF33FFEE33FEED80
:1007210033FD0207CDE803F830E705C0F075F000AE
:10073100EF2FFFEE33FEED33FD40B830E7C280AA64
:1007410075F020800E75F010800575F0087D007E33
:10075100007F003392D530D5031208FAEC334010F4
:10076100EF33FFEE33FEED33FDEC33FCD5F0ED223C
:0E077100E5F0247EA2D513CC92E7CDCEFF2278
:10077F00EDD2E7CD33EC3392D524814006E4FFFE72
:10078F00FDFC22FCE4CFCECDCC24E0501174FF80D1
:10079F00EDC3CC13CCCD13CDCE13CECF13CF04706E
:0707AF00F030D5DE0208FA6C
:100928003A70FA83BCAAE9E43E81E0F8BF9DE9E6A3
:100938003F80000039283C1ABB9969663DA335E31E
:10094800BF255DE73FC90FDB418DDBCCC44936EEDF
:1009580045C9913FC5B0F83D3F800000C317F53445
:10096800452FFA73C60AFDDD120A1704A2E19200A8
:100978001420E01590092874041208008026120A31
:100988001730E102B20020E0EB8C3C8D3D8E3E8FAB
:100998003F90093C7404120800A83CA93DAA3EAB4C
:1009A8003F12059BED4C6007300004EC6480FC228C
:1009B800120A17C0E08C3C8D3D8E3E8F3F90096037
:1009C8007403120800A83CA93DAA3EAB3F12059B40
:1009D800ECC53CFCEDC53DFDEEC53EFEEFC53FFF59
:1009E8009009507403120800D082A83CA93DAA3E81
:1009F800AB3FE58230E0071206A4B20080A6EFCB39
:100A0800FFEECAFEEDC9FDECC8FC1206A48095ED08
:100A180033EC547FCC33920024605007D0E0D0E010
:100A28000207EB7B837AF97922783E12059BEDF970
:100A380033ECF83324815011EFFBEEFA12077F12E2
:100A48000741ECB2E7FC1204AAED33EC33602F2423
:100A580003F8C313FCED92E7FDE82481E4501FEC92
:100A6800F8EDF9EEFAEFFB12077FEF04C2E0FCF5B0
:100A78008212074BECB2E7FC1204AAE58203FAEDF6
:0E0A880033EC3360071413FCED92E7FDEA2215
:1007B600E9D2E7C933E833F892D5EDD2E7CD33EC89
:0707C60033FC5002B2D52202
:1007CD00EC30E7100FBF000C0EBE00080DBD00048D
:1007DD000BEB6014A2D5EB13FCED92E7FD2274FF39
:1007ED00FCFDFEFF22E480F8A2D574FF13FC7D8092
:0307FD00E480EFA6
:10080000C0E0EFFBEEFAEDF9ECF812059BD0E0F555
:10081000F0EFFBEEFAEDF9ECF8120908A3A3A3A39D
:10082000E8C0E0E9C0E0EAC0E0EBC0E0C0F01205DB
:100830009B120918A3A3A3A31204AAD0F0D0E0FB33
:0D084000D0E0FAD0E0F9D0E0F8D5F0D422F5
:030000000210AF3C
:0C10AF00787FE4F6D8FD75813F021087C1
:10084D00BB010689828A83E0225002E722BBFE02A9
:09085D00E32289828A83E49322DC
:10086600BB010CE58229F582E5833AF583E0225047
:1008760006E92582F8E622BBFE06E92582F8E22291
:0D088600E58229F582E5833AF583E49322AB
:10089300EF8DF0A4A8F0CF8CF0A428CE8DF0A42E79
:0208A300FE2233
:1008A500BC000BBE0029EF8DF084FFADF022E4CC37
:1008B500F875F008EF2FFFEE33FEEC33FCEE9DEC00
:1008C500984005FCEE9DFE0FD5F0E9E4CEFD22ED46
:1008D500F8F5F0EE8420D21CFEADF075F008EF2F90
:1008E500FFED33FD4007985006D5F0F222C398FD81
:0508F5000FD5F0EA221E
:0E08FA00C3E49FFFE49EFEE49DFDE49CFC220F
:10090800E493FC740193FD740293FE740393FF2235
:10091800E493F8740193F9740293FA740393FB2235
:00000001FF
