:0300E600DFFE2218
:1000B200EF4E600F7D027CFADCFEDDFAEF1F70F07E
:0300C2001E80EDB0
:0100C5002218
:03001F00010801D4
:10000300759840758920E4F587758DFD758BFDD254
:050013008E75A890228B
:0E00D800E508B40108850999C299E4F50822EB
:1000C6007509401200031200D87F647E001200B248
:0200D60080F4B4
:03002300020018C0
:070018003099037508013265
:03000000020026D5
:0C002600787FE4F6D8FD75810902006DBA
:100032000200C6E493A3F8E493A34003F68001F21E
:1000420008DFF48029E493A3F85407240CC8C333CF
:10005200C4540F4420C8834004F456800146F6DF9E
:10006200E4800B010204081020408090001FE47E0F
:10007200019360BCA3FF543F30E509541FFEE49393
:10008200A360010ECF54C025E060A840B8E493A35A
:10009200FAE493A3F8E493A3C8C582C8CAC583CA85
:1000A200F0A3C8C582C8CAC583CADFE9DEE780BE3D
:0100220000DD
:00000001FF
