:0800900012000312003480F895
:100003007508007509077590FE120065E59025E0F7
:10001300F590439001E509150970021508D3E50928
:100023009400E5086480948050DF1200657590FFAA
:0100330022AA
:1000340075080075090775B0FE120065E5B025E086
:10004400F5B043B001E509150970021508D3E509B7
:100054009400E5086480948050DF12006575B0FF59
:010064002279
:040065007F327E0068
:10006900D3EF9400EE64809480400F7D817C2DDC79
:0A007900FEDDFAEF1F70E91E80E6BD
:01008300225A
:0300000002008477
:0C008400787FE4F6D8FD75810902009039
:00000001FF
