:10151D0000000001000102010600020301070003A3
:10152D000402080004050309000505040A0006016C
:10153D000101010701010102080101010309010176
:07154D0001040A0101010580
:100AE50061000000000000000000000000000000A0
:100AF50000000000000000000000000000000000F1
:100B050000000000000000000000000000000000E0
:100B150000000000000000000000000000000000D0
:100B250000000000000000000000000000000000C0
:100B350000000000000000000000000000000000B0
:100B450000000000000000000000000000000000A0
:100B55000000000000000000000000000000000090
:100B65000000000000000000000000000000000080
:100B75000000000000000000000000000000000070
:100B85000000000000000000000000000000000060
:100B95000000000000000000000000000000000050
:100BA5000000000000000000000000000000000040
:100BB5000000000000000000000000000000000030
:100BC5000000000000000000000000000000000020
:100BD5000000000000000000000000000000000010
:100BE50000000000010A00010C00010900010B00D2
:030BF500010800F4
:1015F4001214DDC2B4758901758C3C758AB0D2AF02
:10160400D2A9D28C12143D120943E50C70F680FA6B
:10143D00E50C24FE601B24FE602624FC603124078D
:10144D007040E50B75F005A42420F582E434158079
:10145D002BE50B75F005A4241EF582E43415801CD4
:10146D00E50B75F005A4241FF582E43415800DE518
:10147D000B75F005A42421F582E43415F583E4936E
:03148D00F50B223A
:10094300E50BC394055038E50B60347BFF7A0079DF
:100953006E7D107F801215547BFF7A00797E7D10A7
:100963007F901215547BFF7A00798E7D107F881259
:1009730015547BFF7A00799E7D107F98121554E5FC
:100983000BB40B004003020AE4900993F828287380
:100993000209B40209EB0209F0020A07020A1E0265
:1009A3000A38020A64020A6F020A88020AC3020AA8
:1009B300D61214907BFF7A00792E7D107F8012155A
:1009C300547BFF7A00793E7D107F901215547BFF94
:1009D3007A00794E7D107F881215547BFF7A007957
:1009E3005E7D107F98021554121490805D1214904E
:1009F30075260075271F7528007529027B7F7A00ED
:100A03007D10802C12149075260075272F752800F1
:100A13007529027B7F7A007D20801512149075263C
:100A23000075273F7528007529027B7F7A007D308A
:100A33007C00E480287F011216341214907BFF7A25
:100A43000079AE7D107F8012155475260075270F2F
:100A53007528007529027B7F7A00E4FDFCFF0213F1
:100A63001D7F0112163412149002119C7F0112167D
:100A7300341214907BFF7A0079BE121381E50C6463
:100A830008605E80F87F01121634121490752F00EF
:100A930075303F7531007532017B7F7A00E4FDFCD0
:100AA300FF120F2CE4F52FF530F5317532017B7F02
:100AB300FA7D3FFCFF120F2CE50C6408602380F8DD
:100AC3007F011216341214901213E4E50C640860CB
:100AD3001080F81214907B017A0179007D061210C0
:020AE3007F2270
:10119C00E4F5237F341216347F361216341215CF31
:1011AC00900000EFF0D2ADE50C64087003021284DD
:1011BC00E4F5247480250AF50A2400F582E4340051
:1011CC00F583E0FC700974212524F8763F804AE40D
:1011DC001207667B717A3D799C78411205B6E4FB67
:1011EC00FA79FA78431204C5E4FBFA797A78441256
:1011FC0006BF7B9A7A99794978411205B6A804A959
:10120C0005AA06AB07E4FFFE7D887C421204C112DE
:10121C00079A74212524F8A6070524E524B4029323
:10122C0075BCE8E50A547FFFE521FD7C00E4FBFA80
:10123C00120DCBE50A547FFFE522FD7C007B017A81
:10124C0000120DCBE50C5406601FE50C5404FF7E18
:10125C00007CFF7DFF1208AEE50C540225232FF510
:10126C0023D3940A4003E4F523E5236006FF7E00B4
:10127C00121614050A0211B37F30121634E4F5BCB1
:04128C00F59DC2AD5D
:01129000223B
:03000B000215815A
:09158100C0E0C0D075D000C00725
:10158A00E590F4FFB5090385080CE5096F5FF508D6
:08159A008F09758C3C758AB0C5
:0715A200D007D0D0D0E032E9
:03002B000215A912
:1015A900C0E0C083C082C0D053BCEF050A740025D7
:1015B9000AF582E43400F583E5BDF0150AD0D0D0F0
:0615C90082D083D0E03265
:1015CF00759D01E4F5A275BCE8E5BC30E4FBE4F5DC
:1015DF00BCACBD1207667B717A3D799C78411205D0
:0515EF00B612079A226C
:10002E00B4D3D7F3B5BDD3D2D2C0B4CECEAA20208E
:10003E0053302020C8B7C8CF20533120CFF2CFC2C3
:10004E0053322020CFF2C9CF20533320B7B5BBD8BF
:10005E00B0B45330BDF8C8EBB9A6C4DCD1A1D4F10D
:10006E00CABEB2A8C6F720202020202020202020A3
:10007E00BBE6CDBC202020202020202020202020C8
:10008E00BBADBDBBB2E6CFDF20202020202020203C
:10009E00BBADB2A8D0CE20202020202020202020B2
:1000AE00B9F6B6AFCFD4CABE202020202020202003
:1000BE000000000000000000000000000000000032
:1000CE000000000000000000000000003F80000063
:1000DE000000000000000000003FE000FFE0000014
:1000EE0000000000000003C003FFFFE1FFF000006E
:1000FE000000000000001FF8FFFFFFFFFFFC0000E4
:10010E000000000000007FFFFFFFFC1FFFFC00004F
:10011E00000000000000FFFF9FFFFFE7FFFC000054
:10012E00000000000001FFFE7C1FFFFDFFFC000031
:10013E00000000000001FFFDC00001FDFFFE0000F9
:10014E00000000000003FFF78000003E7FFE00006D
:10015E00000000000003FFFF00000003FFFE000090
:10016E00000000000003FFEF80000FC1FFFE000043
:10017E00000000000003FFFF7FC07FC0DFFC000017
:10018E00000000000003FFFFFFC07FF86FFC0000BF
:10019E00000000000001FFBFFF803FFFBFF800001E
:1001AE00000000000000FFAFEFE4F007FFF00000DA
:1001BE00000000000000FFFE1C7DFFC3FFE00000FA
:1001CE000000000000007FFDFFF9BFF9BB800000BA
:1001DE000000000000000EEFFFE07F7C0F0000002B
:1001EE0000000000000006F3F0398C80078000004C
:1001FE000000000000000FE63F79CFC007C00000EE
:10020E000000000000000FED0070C00006C00000EE
:10021E000000000000001FEE0000000003E00000E0
:10022E000000000000001FC000C0200001E0000020
:10023E000000000000001F8001C0380003F0000025
:10024E000000000000001F8003001C0000F00000F2
:10025E000000000000001F8007800E0000F000006C
:10026E000000FFF800001F800FFFFF0001F80000E4
:10027E0000FFFFFF00003FC31FFFFBC001BC0000DB
:10028E0000FFFFFF80007FC3FC7F03F001BF000073
:10029E0000FFFFFFF0007BE3F80001F007BF8000D6
:1002AE000001FFFFFC00FFE3BFFFFFF007BF800070
:1002BE000000FFFFFF81FFF1CFFFFF4007FF80002F
:1002CE000000FFFFFFF3FFF0C3C03E000F7F800072
:1002DE000000FFFFFFFFFDF8C1FF78001EFF80004A
:1002EE000000FFFFFFFFFDF8439F00023FFF80006D
:1002FE000000FFFFFFFFFEFC01F000027BFF80000D
:10030E0000007FFFFFFFFFBE187F8001E7FF800028
:10031E0000003FFFFFFFFFDF180F010FDFFF800020
:10032E0000003FFFFFFFFFE3C00003FF7FFF8000E1
:10033E00000007FFFFFFFFF878007FF8FFFF800047
:10034E000000007FFFFFFFFFC6FFFF87FFFF80005B
:10035E000000001FFFFFFFFFFC01B0FFFFFF80004A
:10036E000000000FFFFFFFFFFFFFEFFFFFFF80000A
:10037E0000000001FFFFFFFFFFFFFFFFFFFF8000F8
:10038E00000000001FFFFFFFFFFFFFFFFFFF8000C9
:10039E000000000003FFFFFFFFFFFFFFFFFF000055
:1003AE00000000000000000000000000000000003F
:1003BE00000000000000000000000000000000002F
:1003CE00000000000000000000000000000000001F
:1003DE00000000000000000000000000000000000F
:1003EE0000000000000000000000000000000000FF
:1003FE00000000001FFE0E07FF03C0670FFF000086
:10040E00000000001FFEFFF7FF3FF8460FFF000041
:10041E00000000001FFEFFF1CF3CD9F7E7EC000013
:10042E00000000001FFE7FC0387FFDBDE7EC00001E
:10043E00000000001CC07FC0307FFDFEFFFF0000EB
:10044E00000000001CFDFFF0300FD9F7FFFF000089
:10045E00000000001DFDFFF0307FFBFBE7EC00000D
:10046E0000000000198C7FC0307C61B8E7EC000002
:10047E00000000003FBC7FC0F01FFDFBE7FC00004A
:10048E00000000003F3C7FC0F01FBDBBC43C00001D
:10049E000000000036306040C0181803803800009D
:1004AE00000000000000000000000000000000003E
:100BF80060600100B9F6202020202020202020203D
:100C0800202020202020B6AF2020202020202020B7
:100C18002020202020202020CFD420202020202069
:100C280020202020202020202020CABE2020202074
:100C3800202020202020202020202020B2E2202058
:100C48002020202020202020202020202020CAD43E
:040C58002020202018
:1016640075A0FFC2B7D2B612164C20A7FDC2B57F33
:06167400017E0002165287
:10000E008F40121664D2B7C2B68540A012164CC2EB
:08001E00B57F017E00021652BD
:101634008F40121664C2B7C2B68540A012164CC2BF
:08164400B57F017E0002165281
:10167A0012166475A0FFD2B7D2B6D2B5D2B5AFA052
:02168A00C2B5E7
:01168C00223B
:10161400E4FDFCC3ED9FEC9E5015E4FBFA0BBB000C
:0F162400010ABA08F8BB34F50DBD00010C80E4D3
:011633002294
:06164C00D2B57F017E0013
:10165200E4FDFCC3ED9FEC9E50070DBD00010C8024
:01166200F295
:011663002264
:1014DD007F287E00121614C286D2867F30121634F3
:1014ED007F647E001216527F301216347F257E00E7
:1014FD001216527F0C1216347F647E001216527F24
:10150D00011216347F0A7E001216147F060216345D
:081554008D298B2A8A2B892CBA
:10155C00121634E4F52DE52DC395295017AB2AAAA4
:10156C002BA92C852D82758300120881FF12000E89
:04157C00052D80E2D7
:011580002248
:061381008B218A22892362
:101387007F341216347F36121634E4F524E4F5253B
:10139700E5252480FF121634E52470047F8080023F
:1013A7007F88121634E4F526AB210523E523AA220C
:1013B7007002052214F9120868FF12000E0526E5CF
:1013C70026C3941040E20525E525C3942040C105B6
:0D13D70024E524C3940240B57F3002163493
:101490007F34121634E4F521E4F522E5222480FF9E
:1014A000121634E52170047F8080027F8812163482
:1014B000E4F523E4FF12000E0523E523C394104056
:1014C000F20522E522C3942040D10521E521C394F1
:0D14D0000240C57F361216347F30021634FC
:060DCB008F388A398B3AD3
:100DD100E4F53DC3EC648094805003020F2BD3ED06
:100DE100943FEC648094804003020F2BE538C39458
:100DF100005003020F2BE538D3947F4003020F2BE1
:100E0100C3ED9420EC64809480ED500F2480F53C78
:100E1100E538C4540F2480F53B800D2460F53CE592
:100E210038C4540F2488F53BAF3C121634AF3B1243
:100E3100163412167A12167A8F3F12167A8F3EE501
:100E410038540FF9EFFD7C00E9C394087E0040049B
:100E51007F0180027F001208AEAA06AB07E53FFDC5
:100E61007C00E9C394087E0050047F0180027F006A
:100E71001208AEEF2BFDEE3AFCE95407FFC37407ED
:100E81009FFB74017E00A803088005C333CE33CED7
:100E9100D8F9FFEE5CFEEF5D4E603AE53A6401453C
:100EA10039606F753D01E9C3940850107401A803BE
:100EB100088002C333D8FCF4523F8056E95407FF3F
:100EC100C374079FFF7401A807088002C333D8FCCD
:100ED100F4523E803DE53A45396037753D01E9C33D
:100EE10094085018E95407FFC374079FFF7401A8C1
:100EF10007088002C333D8FC423F8016E95407FF3C
:100F0100C374079FFF7401A807088002C333D8FC8C
:100F1100423EE53D6014AF3C121634AF3B1216342D
:0A0F2100AF3F12000EAF3E12000EAB
:010F2B0022A3
:0A0F2C008F2A8C2B8D2C8A2D8B2E22
:100F36007F341216347F36121634E52A652E700277
:100F4600E52D7041C3E530952CE52B6480F8E52F3F
:100F56006480984005852C338009853033852B2F96
:100F6600852C30E533FD7C00D39530E52F6480F881
:100F7600748098400302107AAB32AA31AF2A120D60
:100F8600CB053380DED3E52E952A7480F8652D983F
:100F96004043E530952CFDE52F952BFC120761C0EB
:100FA60004C005C006C007C3E52E952AFDE52D94AD
:100FB60000FC120761A804A905AA06AB07D007D052
:100FC60006D005D0041206BF8F378E368D358C3489
:100FD600852A338047C3E52C9530FDE52B952FFCFC
:100FE600120761C004C005C006C007C3E52A952ED6
:100FF600FDE4952DFC120761A804A905AA06AB0716
:10100600D007D006D005D0041206BF8F378E368D96
:10101600358C34852E33752D00852A2ED3E53395F0
:101026002EE52D6480F87480985049AC33E412079D
:1010360066AB37AA36A935A8341205B6C004C00572
:10104600C006C007AC2BAD2CEC120761D003D00252
:10105600D001D0001204C5E4FBFAF9783F1204C5AA
:1010660012079AEFFD7C00AB32AA31AF33120DCBDB
:09107600053380A87F3002163416
:10131D008F218C228D238A248B25C3EF9525E524DF
:10132D006480F8748098504BC3E5239527E52664B7
:10133D0080F8E522648098503A7F34121634E52106
:10134D00FB7A00D39525E5246480F87480985019B4
:10135D0085262F852730852831852932AD23AC226E
:10136D00AF21120F2C052180D57F361216347F3018
:04137D0012163422EE
:1013E4007F34121634E4F521AC21E41207667BCD78
:1013F4007ACC794C783D1205B6120CBBE4FBFAF9B1
:1014040078421205B6A804A905AA06AB07E4FFFEB4
:10141400FD7C421204C112079AAD07AC067B017A27
:1014240000AF21120DCB0521E521C3948040B97F83
:09143400361216347F3002163422
:08107F008B218A2289238D24B4
:10108700752580752603E4F527E527C31375F0104A
:10109700A4AB212523F9E52235F0FAE5275401759C
:1010A700F020A429F9EA35F0FAE52775F008A42518
:1010B70025FF7D101215540527E527C3940640C95F
:1010C7007527017525B0E5268524F084E5F075F0D0
:1010D70010A4AB212523F9E52235F0FA7D10AF25C1
:1010E700121554E5262402FFE433FEAD247C0012DA
:1010F70008C0ED75F010A4AB212523F9E52235F0E2
:10110700FAE5252408FF7D101215540526741025CD
:1011170025F525B4C0037525807F341216347F0367
:10112700121634E527540F6025E5272440FF1216D1
:1011370034E4F528E50C640860477F057E00121645
:10114700140528E528C3940740EA052780D5E52735
:10115700B44003E4F527E5272440FF121634E4F5ED
:1011670028E50C6408601A7F057E0012161405280E
:10117700E528C3940740EA05277F3012163402108A
:10118700CD7F341216347F031216347F4012163483
:051197007F3002163458
:1004BE00020806E86480F8E933E83360110460F05E
:1004CE00ED33EC337009E8FCE9FDEAFEEBFF2204A4
:1004DE0060DED3EB9FEA9EE99DE8C2E78CF0C2F79F
:1004EE0095F0400CE8CCF8E9CDF9EACEFAEBCFFB6B
:1004FE001207D185D0F05804700320D5B3E80470EC
:10050E00075002B2D502081092D5EC0460F7E4CC85
:10051E00C0E0C398F8603B94186008400DD0E0FB33
:10052E000207E8E4FBFAC9FC8028E830E406E4C9D7
:10053E00FBE4CAFCE830E305E4C9CACBFCE8540787
:10054E006010F8C3E913F9EA13FAEB13FBEC13FC92
:10055E00D8F130F52FC3E49CFCEF9BFFEE9AFEED35
:10056E0099FDD0E0FBEF4E4D4C701222DB030208DA
:10057E000DEC2CFCEF33FFEE33FEED33FDED30E7EB
:10058E00EB0207E8EF2BFFEE3AFEED39FDD0E0FB74
:10059E0050130BBB0003020810ED13FDEE13FEEF1C
:0805AE0013FFEC13FC0207E847
:1005B600EC4D6011E8497017ED33EC3304600DE43F
:1005C600FCFFFEFD22E933E8330470F80208061248
:1005D60007D158046009E4CC24815006285009024A
:1005E600081028400302080DC0E0EB4A7044B980A9
:1005F60006D0E0FB0207FCEF4E701CBD8008EBFF47
:10060600EAFEE9FD80EBE98DF0A4FEE5F002069F27
:10061600E9CDF9EAFEEBFFEF89F0A4FCE5F0CE891F
:10062600F0A42EFFE435F0CD89F0A42DFEE435F0DC
:100636008067EF4E7005BD80D780C3EF8BF0A4AC0A
:10064600F0EE8BF0A42CFCE435F0F8EF8AF0A42C45
:10065600E5F038FCE433CB8DF0A42CFCE5F03BF858
:10066600EE8AF0A42CFCE5F038F8E433CF89F0A448
:100676002CFCE5F038CF3400CE89F0A42FFFE5F04E
:100686003EFEE433C98DF0A42EFEE5F039CD8AF0A6
:10069600A42FFFE5F03EFEE43DFD33D0E0FB50071E
:1006A6000BBB000F020810EC2CFCEF33FFEE33FE01
:0606B600ED33FD0207E830
:1006BC00020810EC5D046005E8590470030208069A
:1006CC001207D1580460F6EC4860F2EC7004FDFEA1
:1006DC00FF22C860DB2481C85009C3986002500611
:1006EC0002080D9850CAF582E9294B4A7005AB8275
:1006FC000207FC75F0007C1A7880C3EF9BEE9AED34
:10070C0099400DC3EF9BFFEE9AFEED99FDE842F088
:10071C00DC23ACF0D0E0FFD0E0FED0E0FDAB8220DB
:10072C00E7101BEB60BAEC2CFCEF33FFEE33FEED65
:10073C0033FD0207E8E803F830E705C0F075F00078
:10074C00EF2FFFEE33FEED33FD40B830E7C280AA49
:10075C0075F020800E75F010800575F0087D007E18
:10076C00007F003392D530D503120915EC334010BD
:10077C00EF33FFEE33FEED33FDEC33FCD5F0ED2221
:0E078C00E5F0247EA2D513CC92E7CDCEFF225D
:10079A00EDD2E7CD33EC3392D524814006E4FFFE57
:1007AA00FDFC22FCE4CFCECDCC24E0501174FF80B6
:1007BA00EDC3CC13CCCD13CDCE13CECF13CF047053
:0707CA00F030D5DE02091535
:100C5D003A70FA83BCAAE9E43E81E0F8BF9DE9E66B
:100C6D003F80000039283C1ABB9969663DA335E3E6
:100C7D00BF255DE73FC90FDB418DDBCCC44936EEA7
:100C8D0045C9913FC5B0F83D3F800000C317F5340D
:100C9D00452FFA73C60AFDDD120D4C04A2E1920038
:100CAD001420E015900C5D740412081B8026120DA3
:100CBD004C30E102B20020E0EB8C228D238E248F8C
:100CCD0025900C71740412081BA822A923AA24AB29
:100CDD00251205B6ED4C6007300004EC6480FC2253
:100CED00120D4CC0E08C228D238E248F25900C95F7
:100CFD00740312081BA822A923AA24AB251205B63A
:100D0D00ECC522FCEDC523FDEEC524FEEFC525FF88
:100D1D00900C85740312081BD082A822A923AA2443
:100D2D00AB25E58230E0071206BFB20080A6EFCBFF
:100D3D00FFEECAFEEDC9FDECC8FC1206BF8095EDB5
:100D4D0033EC547FCC33920024605007D0E0D0E0D8
:100D5D000208067B837AF97922783E1205B6EDF901
:100D6D0033ECF83324815011EFFBEEFA12079A128F
:100D7D00075CECB2E7FC1204C5ED33EC33602F24B5
:100D8D0003F8C313FCED92E7FDE82481E4501FEC5A
:100D9D00F8EDF9EEFAEFFB12079AEF04C2E0FCF55D
:100DAD0082120766ECB2E7FC1204C5E58203FAED88
:0E0DBD0033EC3360071413FCED92E7FDEA22DD
:1007D100E9D2E7C933E833F892D5EDD2E7CD33EC6E
:0707E10033FC5002B2D522E7
:1007E800EC30E7100FBF000C0EBE00080DBD000472
:1007F8000BEB6014A2D5EB13FCED92E7FD2274FF1E
:10080800FCFDFEFF22E480F8A2D574FF13FC7D8076
:03081800E480EF8A
:10081B00C0E0EFFBEEFAEDF9ECF81205B6D0E0F51F
:10082B00F0EFFBEEFAEDF9ECF8120923A3A3A3A367
:10083B00E8C0E0E9C0E0EAC0E0EBC0E0C0F01205C0
:10084B00B6120933A3A3A3A31204C5D0F0D0E0FBC7
:0D085B00D0E0FAD0E0F9D0E0F8D5F0D422DA
:0300000002129158
:0C129100787FE4F6D8FD7581400212D889
:10086800BB010689828A83E0225002E722BBFE028E
:09087800E32289828A83E49322C1
:10088100BB010CE58229F582E5833AF583E022502C
:1008910006E92582F8E622BBFE06E92582F8E22276
:0D08A100E58229F582E5833AF583E4932290
:1008AE00EF8DF0A4A8F0CF8CF0A428CE8DF0A42E5E
:0208BE00FE2218
:1008C000BC000BBE0029EF8DF084FFADF022E4CC1C
:1008D000F875F008EF2FFFEE33FEEC33FCEE9DECE5
:1008E000984005FCEE9DFE0FD5F0E9E4CEFD22ED2B
:1008F000F8F5F0EE8420D21CFEADF075F008EF2F75
:10090000FFED33FD4007985006D5F0F222C398FD65
:050910000FD5F0EA2202
:0E091500C3E49FFFE49EFEE49DFDE49CFC22F3
:10092300E493FC740193FD740293FE740393FF221A
:10093300E493F8740193F9740293FA740393FB221A
:10129D000215F4E493A3F8E493A34003F68001F25E
:1012AD0008DFF48029E493A3F85407240CC8C33352
:1012BD00C4540F4420C8834004F456800146F6DF21
:1012CD00E4800B0102040810204080900AE5E47EC2
:1012DD00019360BCA3FF543F30E509541FFEE49316
:1012ED00A360010ECF54C025E060A840B8E493A3DD
:1012FD00FAE493A3F8E493A3C8C582C8CAC583CA08
:10130D00F0A3C8C582C8CAC583CADFE9DEE780BEBF
:010C5C000097
:00000001FF
